:1000000034C0000057C0000055C0000053C00000BD
:1000100051C000004FC000004DC000004BC00000A8
:1000200049C0000047C0000045C0000043C00000B8
:1000300041C000003FC000003DC000003BC00000C8
:1000400039C0000037C0000035C0000033C00000D8
:1000500031C000002FC000002DC000002BC00000E8
:1000600029C0000027C00000BC0111241FBECFEF33
:10007000D8E0DEBFCDBF11E0A0E0B1E0E8EBF5E0F5
:1000800002C005900D92A230B107D9F711E0A2E0AD
:10009000B1E001C01D92A430B107E1F710E0CAE65B
:1000A000D0E003C02297FE0175D1C836D107D1F741
:1000B00032D180C2A5CFCF93DF93CDB7DEB72E97D5
:1000C0000FB6F894DEBF0FBECDBF81E08093030171
:1000D00085E290E0209103012295220F207EFC0111
:1000E000208380E090E0AAE7B4E489839A83AB831D
:1000F000BC8320E030E04AE755E469817A818B8156
:100100009C81CDD1DC01CB018D839E83AF83B887E9
:1001100020E030E040E85FE36D817E818F8198854B
:100120003DD188232CF481E090E09A8789873BC0F9
:1001300020E03FEF4FE757E46D817E818F81988506
:10014000AAD118163CF520E030E040E251E4698184
:100150007A818B819C81A3D1DC01CB01BC01CD01D3
:1001600021D1DC01CB019A8789870FC080E991E01A
:100170009C878B878B859C850197F1F79C878B8764
:1001800089859A8501979A87898789859A850097B5
:1001900069F713C06D817E818F81988503D1DC0161
:1001A000CB019A87898789859A859E878D878D85DA
:1001B0009E850197F1F79E878D872E960FB6F8944E
:1001C000DEBF0FBECDBFDF91CF910895CF93DF93F8
:1001D000CDB7DEB72E970FB6F894DEBF0FBECDBFFA
:1001E0001092030185E290E0209103012295220FF5
:1001F000207EFC01208380E090E0AAE7B4E48983BC
:100200009A83AB83BC8320E030E04AE755E4698100
:100210007A818B819C8143D1DC01CB018D839E83CC
:10022000AF83B88720E030E040E85FE36D817E81F6
:100230008F819885B3D088232CF481E090E09A8751
:1002400089873BC020E03FEF4FE757E46D817E8117
:100250008F81988520D118163CF520E030E040E2EF
:1002600051E469817A818B819C8119D1DC01CB01B8
:10027000BC01CD0197D0DC01CB019A8789870FC0E3
:1002800080E991E09C878B878B859C850197F1F7AE
:100290009C878B8789859A8501979A878987898525
:1002A0009A85009769F713C06D817E818F8198854B
:1002B00079D0DC01CB019A87898789859A859E87C9
:1002C0008D878D859E850197F1F79E878D872E9668
:1002D0000FB6F894DEBF0FBECDBFDF91CF9108956A
:1002E000CF93DF93CDB7DEB784E290E024E230E035
:1002F000F901308120910201232BFC012083DF9141
:10030000CF910895CF93DF93CDB7DEB7D4DE5EDF14
:10031000DF91CF910895CF93DF93CDB7DEB7E0DFC4
:10032000F1DFFECFCF93DF9300D000D0CDB7DEB7A3
:100330009A8389837C836B8389819A81813091053B
:10034000A1F48B819C818F3F2FEF920771F48091F4
:100350000001282F30E081E090E0022E02C0880FDB
:10036000991F0A94E2F7809302010F900F900F906B
:100370000F90DF91CF910895CF93DF93CDB7DEB784
:100380006FEF7FEF81E090E0CDDFDF91CF910895B7
:10039000EE0FFF1F0590F491E02D09942FD008F483
:1003A00081E0089557D088F09F5790F0B92F992792
:1003B000B751A0F0D1F0660F771F881F991F1AF070
:1003C000BA95C9F712C0B13081F05ED0B1E008959E
:1003D0005BC0672F782F8827B85F39F0B93FCCF31F
:1003E000869577956795B395D9F73EF49095809566
:1003F000709561957F4F8F4F9F4F0895990F00081B
:10040000550FAA0BE0E8FEEF16161706E807F907E6
:10041000C0F012161306E407F50798F0621B730B81
:10042000840B950B39F40A2661F0232B242B252B02
:1004300021F408950A2609F4A140A6958FEF811DA5
:10044000811D089557FD9058440F551F59F05F3F87
:1004500071F04795880F97FB991F61F09F3F79F0E6
:1004600087950895121613061406551FF2CF469568
:10047000F1DF08C0161617061806991FF1CF8695EA
:100480007105610508940895E894BB2766277727CE
:10049000CB0197F90895B2DF08F48FEF08950BD0E0
:1004A00078C069D028F06ED018F0952309F05AC0B2
:1004B0005FC01124EACFC6DFA0F3959FD1F3950F5B
:1004C00050E0551F629FF001729FBB27F00DB11DD8
:1004D000639FAA27F00DB11DAA1F649F6627B00D68
:1004E000A11D661F829F2227B00DA11D621F739F51
:1004F000B00DA11D621F839FA00D611D221F749F5F
:100500003327A00D611D231F849F600D211D822FA5
:10051000762F6A2F11249F5750408AF0E1F08823EC
:100520004AF0EE0FFF1FBB1F661F771F881F9150F9
:100530005040A9F79E3F510570F014C0A6CF5F3F11
:10054000ECF3983EDCF3869577956795B795F7952C
:10055000E7959F5FC1F7FE2B880F911D96958795B4
:1005600097F9089597F99F6780E870E060E0089533
:100570009FEF80EC089500240A94161617061806BB
:100580000906089500240A94121613061406050697
:100590000895092E0394000C11F4882352F0BB0F28
:1005A00040F4BF2B11F460FF04C06F5F7F4F8F4F8B
:0805B0009F4F0895F894FFCF5E
:0205B80005003C
:00000001FF
